:0400000000000729CC
:08000800FF00030E8312A000AB
:100010000408A1000A08A2008A018C19F9280C180A
:10002000EE28831222088A0021088400200E830013
:10003000FF0E7F0E09008207003420341034303464
:100040008207FF342034103430340311A61908001D
:100050002C307920023903190800A6157130792057
:10006000C00072307920E039BF00753079200F3937
:10007000C100AC012C0841020319492876302C0735
:100080007920CB0042302C0784004B088000AC0A5A
:100090003A280230CC000030CB002C3090200311E5
:1000A0000800E030CC008030CB000F3090200E30C4
:1000B0007920E039803A031D57280800E030CC0051
:1000C0000030CB000F3090200E307920E039031D36
:1000D00064280800CA004A0879204C05031D6B28D3
:1000E0000800B520A030BA200130BD20C620D220A3
:1000F0000800CA00B5200330BA204A08BA200130EF
:10010000BD20C620D22051080800CA00B520023008
:10011000BA204A08BA204B08BA20C620D2200800CC
:10012000CA00B5200530BA204A08BA204C08BA20C7
:100130004B08BA20C620D2200800CB00B520803062
:100140004B04BA20C620D2200800B520C030BA2007
:10015000C620D22008008312941211309400941605
:100160008C1183168C1583120800CD014F30CE0000
:10017000840008008000840A0800FF390319080081
:100180008001840AFF3E031DBD2808000408CD003D
:100190004F30CD02031908004F30CE0085104F08B4
:1001A00093000800CD08031DD22808008610B52052
:1001B0000230BD200408CD004F30CD024F30CE00BC
:1001C0004F089300D22086144F08B6005008B5009F
:1001D0000310B60CB50C0F30B60508000C10B10AB0
:1001E0000319B20AB40803191128B40B11282616F2
:1001F00011288C114E088400CE0A13088000CD0B04
:10020000032985141128840A0008930011281E224E
:100210008514070803391B20BB00070EBA00BA0C6F
:100220003A0C03392020BA00AB200F08643EB3001B
:100230000F083302803903191829AA2126166400F1
:10024000261E582926120230B4003D08FF3C03192F
:1002500058293E08003C031932293E08013C031985
:1002600037293E29D6203A08BD00BE0A3E29403033
:1002700070213A08013EBD00BE013E290830CC0085
:1002800030306A203D08CB00313085200030CB0073
:10029000323085200230CB00353085203508CB0048
:1002A000363085203608CB003730852001309D2040
:1002B0002520A61D1F298921A6111F293708AD0059
:1002C000AE012D08AE01AD0CAE0CAD0CAE0CAE0CFB
:1002D0002E0C30390C3897002D083F399500080056
:1002E0009F001F141930AC00AC0B74291F151F1987
:1002F00077291E08B500B6010310B50DB60D031021
:10030000B50DB60D0310B50DB60D0310B50DB60D38
:1003100008000F304005AD002D08003C031991295D
:10032000A9294208B8004308B9003808AD003908C7
:10033000AE000310AE0CAD0C0310AE0CAD0C0310F0
:10034000AE0CAD0C0310AE0CAD0C2D08B7005E2149
:10035000A9290800A5200330CC000230CB000F30C3
:1003600090200730CB002A3085209030CB002930F8
:1003700085200230CB0028308520FF30CB00203094
:100380008520FF30CB0021308520FF30CB000030AE
:100390008520FF30CB0001308520FF30CB000430BA
:1003A0008520FF30CB0005308520FF30CB00243086
:1003B0008520E030CB00253085203B08CB0008307D
:1003C00085200030CB0009308520BB0A3B08CB00DC
:1003D000103085200030CB0011308520BB0A3B084F
:1003E000CB00143085200030CB0015308520BB0AAF
:1003F0003B08CB00183085200030CB001930852019
:10040000F030BB050030CB002B3085205E2008008B
:100410004D1D080083168C11831283168C158312D0
:100420000800AC0064000F08043EB3000F0833025C
:1004300080390319162AAC0B122A080064008316AF
:100440008C0145308100203084008001840A841FA3
:10045000252AA03084008001840A841B2B2A432291
:1004600083120130900083160C148312831204301F
:10047000920083163F30920083128E018F01831207
:10048000C0308B000800831604309F0083120230B6
:1004900005088316FD308500831206300608831692
:1004A000F93086008312003087008316D33087002E
:0404B00083120800AB
:084000000000010000000500B2
:02400E00723FFF
:00000001FF
